:020000040000fa
:080000000010040000000000e4
:020000040000fa
:102000006f6e24000e7f24000e0188000000000087
:102010000c000700a0a62e00010020001100070000
:10202000000020000000e00002003200000002007a
:102030000000000046120200000000000040da002c
:102040000000fe004440a900401a20000000e0000b
:102050000300320000002000a00188004440a800d6
:102060000000060091018800800078000000eb006d
:1020700015003700e280400032a0b4009101ba00a0
:10208000e280400032a0b4009102ba00e280400039
:1020900032a0b4000002eb00472bde00f507b200cf
:1020a000602ce10004003a000059eb008301e900d4
:1020b000fdff3e00040037006128e100010032000e
:1020c0000082eb00040007001101ba000200e000ea
:1020d000e8ff3a00000006003159ba008301e90028
:1020e0000c0032002159ba008301e90008003200d7
:1020f0000400e00003003a00e280400032a0b40097
:10210000f5ff370011d9ba008301e900faff3a0060
:102110008100e800e180400032a0b4000000060029
:102120000040da000000fe008001eb0002003700f2
:10213000817178008301e800828f5100fcff3a0032
:042140000000060095
:020000040000fa
:020000040005f5
:0457f40000fe0000b3
:020000040000fa
:020000040005f5
:0457f800a781000085
:020000040000fa
:020000040005f5
:0457fc00603f00000a
:020000040000fa
:100008009010000090100000901000009010000068
:100018009010000090100000901000009010000058
:10002800901000009010000090100000363f000073
:10003800901000009010000090100000ca400000ce
:10004800ca4100009010000090100000e2d70000a4
:1000580086d700009010000090100000901000005b
:100068009010000090100000901000009010000008
:1000780090100000901000009010000090100000f8
:1000880090100000901000009010000090100000e8
:100098009010000090100000c4be00002cbc0000ae
:1000a80090100000901000009010000090100000c8
:1000b80090100000901000009010000090100000b8
:1000c80090100000901000009010000090100000a8
:1000d8009010000090100000901000009010000098
:1000e8009010000090100000901000009010000088
:1000f8009010000090100000901000009010000078
:100108009010000090100000901000009010000067
:100118009010000090100000901000009010000057
:100128009010000090100000901000009010000047
:100138009010000090100000901000009010000037
:100148009010000090100000901000009010000027
:100158009010000090100000901000009010000017
:100168009010000090100000901000009010000007
:100178009010000090100000e67b00009010000036
:1001880090100000901000009010000090100000e7
:1001980090100000901000009010000090100000d7
:1001a80090100000901000009010000090100000c7
:1001b80090100000901000009010000090100000b7
:1001c80090100000901000009010000090100000a7
:1001d8009010000090100000901000009010000097
:1001e8009010000090100000901000009010000087
:0801f8009010000090100000bf
:020000040000fa
:100208009010000090100000901000009010000066
:100218009010000090100000901000009010000056
:10022800901000009010000090100000363f000071
:10023800901000009010000090100000ca400000cc
:10024800ca4100009010000090100000e2d70000a2
:1002580086d7000090100000901000009010000059
:100268009010000090100000901000009010000006
:1002780090100000901000009010000090100000f6
:1002880090100000901000009010000090100000e6
:100298009010000090100000c4be00002cbc0000ac
:1002a80090100000901000009010000090100000c6
:1002b80090100000901000009010000090100000b6
:1002c80090100000901000009010000090100000a6
:1002d8009010000090100000901000009010000096
:1002e8009010000090100000901000009010000086
:1002f8009010000090100000901000009010000076
:100308009010000090100000901000009010000065
:100318009010000090100000901000009010000055
:100328009010000090100000901000009010000045
:100338009010000090100000901000009010000035
:100348009010000090100000901000009010000025
:100358009010000090100000901000009010000015
:100368009010000090100000901000009010000005
:100378009010000090100000e67b00009010000034
:1003880090100000901000009010000090100000e5
:1003980090100000901000009010000090100000d5
:1003a80090100000901000009010000090100000c5
:1003b80090100000901000009010000090100000b5
:1003c80090100000901000009010000090100000a5
:1003d8009010000090100000901000009010000095
:1003e8009010000090100000901000009010000085
:0803f8009010000090100000bd
:020000040000fa
:102144001201000000020000000000000040000036
:10215400d804000059000000020000000102000041
:102164000001000009020000e50000000201000077
:1021740000c000003209000004000000000000005c
:10218400010100000000000009240000010000001b
:102194000109000000010000010900000401000021
:1021a40000020000010300000000000007240000fa
:1021b4000100000001c10000000900002403000028
:1021c40002010000010200000100000006240000da
:1021d40002010000020000000924000003020000c4
:1021e40003010000040100000006000024020000b6
:1021f400010400000009000024030000020500009f
:102204000106000001000000062400000201000095
:10221400060000000924000003020000070100007a
:10222400080100000006000024020000010800006c
:10223400000900002403000002090000010a000054
:102244000100000006240000020100000a00000052
:1022540006240000020200002100000009240000fe
:10226400030100002201000021010000000600001b
:1022740024020000022300000009000024030000df
:1022840001240000012300000100000006240000d6
:1022940002020000250000000924000003010000e0
:1022a40026010000250100000006000024020000b1
:1022b4000227000000090000240300000128000098
:1022c40001270000010000000624000002020000b3
:1022d4002900000009240000030100002a01000075
:1022e400290100000009000005010000024000006f
:1022f40000000000000000000925000001050000a6
:1023040002040000060800000a090000058100001c
:102314000240000000000000000000000925000049
:102324000105000022240000262800002a000000e5
:1023340004030000090400003403000054000000fa
:1023440048000000440000002d0000004c00000084
:102354004100000042000000530000002000000083
:10236400200000005400000065000000630000002d
:10237400680000006e0000006f0000006c000000a8
:102384006f000000670000007900000020000000da
:102394002000000020000000200000002e000000ab
:1023a4002a03000054000000410000004e00000019
:1023b40047000000450000005200000049000000f2
:1023c4004e00000045000000200000004100000015
:1023d40055000000540000004f0000004d000000b4
:1023e4004100000054000000490000004f000000bc
:1023f4004e000000b49000009a9100009e910000ed
:10240400d291000000210000010200000408000035
:1024140010200000408000000102000004080000b9
:1024240010200000408000000102000004080000a9
:102434001020000040800000010200000408000099
:102444001020000040800000010200000408000089
:102454001020000040800000010200000408000079
:102464001020000040800000010200000408000069
:102474001020000040800000010200000408000059
:08248400102000004080000060
:020000040000fa
:10248c000200fa000040eb00004f7800804d810004
:10249c000000e000010032000000fe0051c42300e7
:1024ac000040eb0080487800319b2200c0c0b30094
:1024bc0080487800331007006c0d07000d6b070087
:1024cc00316b0700819b22000040eb0080487800b4
:1024dc0036100700bd5b0700819b220010c0b300c3
:1024ec0080487800401f2000161107007853070021
:1024fc009d530700401f2000121107008b5f07003f
:10250c00401f20000f11070053100700401f200030
:10251c000c110700819b220020c0b300804878007a
:10252c00401f2000071107005d100700819b22004f
:10253c0030c0b30080487800401f20000111070014
:10254c00819b220040c0b300804878007660070071
:10255c00d95f0700401f2000fa100700eac2bf0035
:10256c00684060000004e0000e003a00109c22005d
:10257c00104078000004e0000a003a00d1c42300a7
:10258c000040eb0080487800119c220010c0b30082
:10259c008048780062360700819b220060c0b3003f
:1025ac0080487800dc000700819b220050c0b300fb
:1025bc0080487800401f2000e2100700e60e07005c
:1025cc00401f2000df1007008d6707000004e000ab
:1025dc00fdff320051c323000040eb00804878001f
:1025ec0051c423000040eb008048780041c4230014
:1025fc000040eb0080487800401f2000d1100700fd
:10260c00819b220060c0b3008048780066120700ee
:10261c00eac2bf00684060000004e0002500320000
:10262c00bd000700e0c4230090407800609b2200ae
:10263c0001487800e1c4230010c0b3008048780042
:10264c00120037003f36070000338200ff0f5000a6
:10265c000400360088c4bf00624060000004e00043
:10266c0004003200d1c423000040eb008048780005
:10267c0003003700d1c4230010c0b3008048780099
:10268c00819b220070c0b30080487800eac2bf0072
:10269c00684060000004e00004003200d0c4230055
:1026ac00104078000004e000e6ff32009a000700ba
:1026bc0003003700d1c423000040eb0080487800b1
:1026cc00609b2200104078000004e00009003a00f2
:1026dc00d0c42300104078000004e0000500320054
:1026ec00d04d8100610060000004e0000100320068
:1026fc00f701070041c423000040eb00804878003c
:10270c0051c423000040eb0080487800d0c4230063
:10271c00104078000004e00008003200eac2bf005c
:10272c00684060000004e00004003200319c22008c
:10273c0010c0b3008048780011003700d1c42300ca
:10274c000040eb0080487800319c22000040eb00f8
:10275c00804878009081200090407800e0cfb30052
:10276c0080c060009081200001487800908120009a
:10277c00904078000041eb00a0c0b300966a0700bf
:10278c0065000700309c2200104078000004e00037
:10279c003f00320024003700c6010700e8010700a3
:1027ac0080407800d0c4230001487800ff65070002
:1027bc0040c423009040780050c42300104078009f
:1027cc005b2b070050c423009040780040c42300ca
:1027dc0010407800950007000d53070051c42300ea
:1027ec0040c42300880207000004e00002003a0005
:1027fc00ad2b07009f010700c002070010a22200aa
:10280c0010407800e24f500007003a00406621006b
:10281c00104078000004e00003003a00e75607007f
:10282c000004040000000000d0c423001040780015
:10283c000004e0000c003200eac2bf0068406000f7
:10284c000004e00008003200814d8100309c200023
:10285c00808f500004003e00d0c62100104078004c
:10286c000004e000ccff32002b00070019003700f9
:10287c00ce650700e652070051c4230040c4230074
:10288c00610207000004e00001003a007901070032
:10289c00d0c42300104078000004e0000c003a0083
:1028ac00eac2bf00684060000004e00008003a0083
:1028bc00814d8100309c2000808f500004003e0030
:1028cc00d0c62100104078000004e000e8ff320080
:1028dc00110007001000070006003700803e2000a2
:1028ec00181007004768070080407800d0c6210008
:1028fc0001487800d0c62100104078000004e000a8
:10290c00f6ff3a00804d81000000e000dffe3a0047
:10291c0000000000e1fe37000200fa000040eb006e
:10292c00004f7800eac2bf00684060000004e0007d
:10293c000200320010c0b300004f7800d0c4230056
:10294c00104078000004e000010032001e14a000ca
:10295c00e09b2200104078000004e00001003200ef
:10296c001e24a000a0812000104078000080fb00f5
:10297c006f006000e10f500006003c0070a12200c7
:10298c00104078000004e000190032001e34a00052
:10299c0017003700a0812000104078000080fb0059
:1029ac006f006000e20f500006003a0060a12200a8
:1029bc00104078000004e0000d0032001e34a0002e
:1029cc000b003700a0812000104078000080fb0035
:1029dc006f006000e30f500005003a0080a1220058
:1029ec00104078000004e000010032001e34a0000a
:1029fc00b09a22001e487800008220001040780017
:102a0c008040780000cfb30080c06000b09a2200f4
:102a1c001040780000c070008040780000822000d8
:102a2c00014878000080fa00000006000200fa005d
:102a3c00004f78001147980000a222001040780047
:102a4c000004e0000100320082590700f0a12200ce
:102a5c00104078000004e0000100320041590700ea
:102a6c00a0812000104078000080fb006f00600007
:102a7c00e10f500004003c009e4090001e40780086
:102a8c00ac47070009003700a081200010407800f7
:102a9c000080fb006f006000e20f500003003a0062
:102aac009e4090001e407800793a0700a0812000db
:102abc00104078000080fb006f006000e30f5000b6
:102acc0003003a009e4090001e407800bb20070097
:102adc009e4090001e407800020007000080fa0023
:102aec00000006000200fa00004f78001147980021
:102afc001e81fb001e4090008080fb004210dd0018
:102b0c0081004000a0ad2200e14178001e81fb0055
:102b1c001e4090008080fb004210dd0081004000d0
:102b2c00e0ac22006140780080cf51001f003200e1
:102b3c009e81fb001e4090000082fb001e81fb006a
:102b4c001e4090008080fb004210dd0081004000a0
:102b5c00e0ac2200614178004218dd0084004000a6
:102b6c00a0ad2200827078001e81fb001e409000f8
:102b7c008080fb004210dd0081004000e0ac2200b0
:102b8c00614178001e80fb004200dd00804078002f
:102b9c001e40900000c0400082407800df5f0700bc
:102bac004166210010c0b300804878000080fa0014
:102bbc00000006000a00fa00309f22001040780046
:102bcc000004e000a700320010c0b30030479800aa
:102bdc000040eb00204798000040eb0010479800a5
:102bec0099003700d0c72300104178008280fb0089
:102bfc0010c82300e1417800434798008240e80068
:102c0c00d0c7230001487800e0c7230010407800ab
:102c1c008040e900e0c7230001487800d0c72300ba
:102c2c0090407800f0c3b30080cf50000300360012
:102c3c00e1c723000040eb00804878004e40900034
:102c4c00f04f400006003a0020cc230011c0b30026
:102c5c000148780010c0b300504798007a00370044
:102c6c004e409000e94f40000b003a00309f22008c
:102c7c00104078008040e900309f22000148780025
:102c8c0021cc23000040eb00804878000040eb0092
:102c9c00304798006c00370020cc2300104078009f
:102cac000080fb00400798004e009000e20f50009f
:102cbc0018003200ce009000e28f500007003c005c
:102ccc00ce0190000300e0005f0032004e00900047
:102cdc00e10f50000b0032002b003700ce009000ab
:102cec00e48f500015003200ce019000e48f5100ab
:102cfc000c0035004e009000e50f5000150032001e
:102d0c002100370021cc230020c0b300804878007c
:102d1c004d00370021cc230030c0b3008048780030
:102d2c0049003700ce4090002147980021cc230069
:102d3c0040c0b3008048780043003700ce4190007b
:102d4c001347980021cc230050c0b3008048780072
:102d5c003d0037002e409000e64f500006003a0030
:102d6c009e40900040c4b30080cf500002003a0057
:102d7c004e409000004f780021cc230060c0b3007f
:102d8c0080487800300037009e40900040c4b3006b
:102d9c0080cf500027003a0020cc23001040780050
:102dac000080fb0030079800be009000e88f5000b8
:102dbc0015003200be019000e88f510007003c0066
:102dcc003e009000e60f50001a003200be0090004a
:102ddc00e78f50000800320016003700be0190004b
:102dec00e98f51000c0032003e009000ea0f5000b9
:102dfc000d0032000f003700f0b02200ce409000e2
:102e0c00014878000b00370000b12200ce41900041
:102e1c00034878000700370010b12200ce40900024
:102e2c00014878000300370020b12200ce41900009
:102e3c000348780020cc2300104078008040e80044
:102e4c0020cc230001487800e0c723001040780014
:102e5c000004e000030032003e4090000004e0005b
:102e6c0060ff3a000040eb00304798000080fa0009
:102e7c00000006000000fa00509c22001040780070
:102e8c000004e00003003200519c22000040eb00e3
:102e9c00804878000080fa00000006000200fa006a
:102eac005a5907000040eb00004f78000080fa00f0
:102ebc00000006000000fa00d04d81000000e00088
:102ecc0001003200d16907000080fa000000060002
:102edc000000fa001400370030e881000000e9001f
:102eec0030e88900409a2200104078008040e800c9
:102efc00409a220001487800409a220090407800c5
:102f0c00f0c3b30080cf500003003600419a22007a
:102f1c000040eb0080487800409a220090407800f6
:102f2c00000420000101070030e881000000e000ef
:102f3c00e9ff3a000000eb000080fa0000000600f8
:102f4c000400fa0000338200ff0f5000040036002a
:102f5c0088c4bf00624060000004e000030032003f
:102f6c000000eb00100798001b003700e0992200ce
:102f7c00104f780012003700f09922009040780032
:102f8c0000042000e9000700f099220010407800ae
:102f9c008040e800f099220001487800f099220066
:102fac0090407800009a22001040780080cf5000aa
:102fbc0003003900f19922000040eb0080487800b2
:102fcc00f0992200104078009e4f5000eaff3a0022
:102fdc0010002000100798001e0090000080fa00de
:102fec00000006000a00fa00404798000000eb00c1
:102ffc001007980000338200ff0f500004003600c9
:10300c0088c4bf00624060000004e000030032008e
:10301c000000eb0040079800780037004e4090000d
:10302c00230f0700000f78001e00e0007100320033
:10303c00b02c82000000e00006003200b02c8200b0
:10304c00104090000080fb004700de0060479800b5
:10305c00020037008040eb0061479800209b220063
:10306c00ee40900001487800209b22001040780030
:10307c000004e00058003a0048003700b02c8200f1
:10308c000000e00006003200b02c820010409000de
:10309c000080fb004700de0050479800020037001c
:1030ac000040eb0050479800209b2200de4090002f
:1030bc0001487800209b2200104078000004e000ba
:1030cc0017003a00e19b220010c0b3008048780042
:1030dc000000eb00100798004e40900038080700e5
:1030ec0062d7210043c0b30011c0b30010c0b300bd
:1030fc0096320700b02c8a0000338200ff0f50007c
:10310c000400360088c4bf00624060000004e00088
:10311c00060032000000eb00400798003700370033
:10312c001e0090000000e800100798009e00900020
:10313c00401f2000808f50000e003600e10e07006b
:10314c00e19b22000040eb0080487800d0c42300b3
:10315c00104078000004e000030032001100200051
:10316c0041079800250037000000eb00400798004d
:10317c002200370000338200ff0f5000040036009d
:10318c0088c4bf00624060000004e000030032000d
:10319c008000eb0041079800180037000040eb005e
:1031ac00c30e07000000e00004003200d0c423006e
:1031bc00104078000004e000b0ff3a00d0c42300b7
:1031cc00104078000004e00003003a000000eb001f
:1031dc004007980009003700d0c423001040780045
:1031ec000004e00003003a008000eb004107980067
:1031fc000200370000012000400798004e009000ac
:10320c000080fa00000006000400fa00000f7800ad
:10321c0011079800409b2200104078008040e80085
:10322c00409b220001487800409b2200904078008f
:10323c00309b22001040780080cf50001e003900d7
:10324c00419b22000040eb0080487800b2fd070053
:10325c00f0a1220010407800e14f50000900360028
:10326c00f0a1220010407800e44f500005003e0011
:10327c00f0a12200104078008040e800f0a122006c
:10328c000148780000a2220010407800e14f500065
:10329c000900360000a2220010407800e44f5000d4
:1032ac0005003e0000a22200104078008040e8009b
:1032bc0000a2220001487800409b220010407800b8
:1032cc00e34060001e00900001487800409b220003
:1032dc00104078000080fb004200de008040780047
:1032ec001e00780001487800409b220010407800b6
:1032fc000000fb000080fa00000006000000fa004d
:10330c00b09f2200104078000004e000050032005d
:10331c00b09f2200104078008040e900b09f22004e
:10332c00014878000080fa00000006000e00fa0048
:10333c0050079800414f980091a122000040eb00eb
:10334c00804878000000eb00400798000040eb003c
:10335c00304798000040eb00004f78000040eb0035
:10336c0010479800790037004e4890000080fb0011
:10337c00ce0090004600dd0081004000b0b9220074
:10338c0061417800724798007e4090000080fb00fd
:10339c006f0060000000e00003003a0010c0b300b2
:1033ac0030479800610037007e4090000080fb00a1
:1033bc004400de00204798004e4890000081fb003e
:1033cc004e0090008000e8004610dd0081004000b7
:1033dc00b0b9220061417800624798004e489000d5
:1033ec000081fb004e0090008080e8004610dd005c
:1033fc0081004000b0b9220061417800524798002a
:10340c004e4890000081fb004e009000e30040000d
:10341c004610dd0081004000b0b922006141780007
:10342c00424798004e4890000080fb00ce00900070
:10343c004600dd0001014000b1b922000040eb0064
:10344c0000f178004e0090006400400040079800a6
:10345c007e4090000080fb006f006000e70f500082
:10346c0032003400e12b8100a0d721000080400005
:10347c00fe40900001487800e02b810001202000e4
:10348c0080804000a0d72100008040006e41900059
:10349c0002487800e12b8100004020008080400031
:1034ac00a0d7210000804000de4090000148780049
:1034bc00e12b81000060200080804000a0d721001b
:1034cc00008040004e41900002487800e02b8100c3
:1034dc000000e800e02b8900e12b8100d02b81005b
:1034ec00808f5000020039000000eb00e02b8900b7
:1034fc00002c81000000e800002c8900012c8100c8
:10350c00102c8100808f500002003600002c8100ae
:10351c00102c8900012c8100d02b8100808f500051
:10352c0002003900000120001f680700009a2200e9
:10353c00104078008080fb004e009000808f50007f
:10354c0002003e0010c0b300304798003e4090008f
:10355c000004e00084ff32000080fa000000060046
:10356c000800fa0060479800970d0700f0982200b9
:10357c0010407800e44f400008003200f098220020
:10358c0010407800e54f400004003200f098220013
:10359c0010407800e64f40000a003a00f0982200f4
:1035ac0010407800bd54070020992200104078008c
:1035bc000081fb0031af22000040eb0000f17800ed
:1035cc001f013700f0982200104078008080fb002b
:1035dc00000f20008080600000092000808f5000c8
:1035ec0012003a0000992200104078000004e0001c
:1035fc000e003a0010992200104078000004e00000
:10360c000a003a002099220010407800cc080700ec
:10361c0020992200104078000081fb0031af22007d
:10362c000040eb0000f1780005013700908120008c
:10363c00104078000080fb00610060000004e00096
:10364c00ff003200f0982200104078008080fb00d0
:10365c00000f200080806000000b2000808f500045
:10366c0020003a000099220010407800ee4f5000e4
:10367c001c003e0020992200104078008080fb0046
:10368c0030af2200614078000004e00015003a00e1
:10369c0020992200104078000081fb0031af2200fd
:1036ac0010c0b30000f1780020992200104078007f
:1036bc000081fb00009922009040780000be23009e
:1036cc000171780020992200104078000081fb00e5
:1036dc00109922009040780040be230001717800c0
:1036ec00d7003700f0982200104078008080fb0053
:1036fc00000f200080806000000b2000808f5000a5
:10370c0059003a0020992200104078008080fb007c
:10371c0030af220061407800e14f500052003a0077
:10372c000099220010407800ff4f50004e003600e8
:10373c00009922009040780070c2b30080cf5000f6
:10374c0049003e0020992200104078000081fb00c7
:10375c0031af22000040eb0000f1780020992200ec
:10376c00104078008080fb0000be23006140780090
:10377c00e74f5000b2003e00209922001040780024
:10378c008080fb0040be2300614078000080fb007d
:10379c00200798002e0090004700dd0020079800bd
:1037ac0010992200104078008080fb002e009000c1
:1037bc00010070002007980020992200104078002a
:1037cc008080fb00a0d32300614178001247980051
:1037dc0020992200104078008080fb00e0d223006a
:1037ec00614f78001e4090000004e0000b003a008e
:1037fc001e04e00009003a002099220010407800d5
:10380c008080fb0000be2300614078000004e000d3
:10381c0002003a0010c0b300204798001e409000f0
:10382c000081fb009e81fb00209922001040780053
:10383c008080fb0000be2300614078008080fb008c
:10384c004210dd00030040004300dd000100400099
:10385c00800040000089200000804000ae009000f5
:10386c000108780076003700f098220010407800ac
:10387c008080fb00000f200080806000000b200087
:10388c00808f50006e003a00209922001040780082
:10389c008080fb0030af220061407800e14f500087
:1038ac0067003a000099220090407800c0c2b30033
:1038bc0080cf500062003a0020992200104078001e
:1038cc008080fb0000be230061407800ec4f50006c
:1038dc005b003a0020992200104078000081fb0028
:1038ec0031af22000040eb0000f17800109922006b
:1038fc00104078000080fb0067006000e20f500071
:10390c00010032004e003700209922001040780050
:10391c008080fb00a0d323006141780012479800ff
:10392c0020992200104078008080fb00e0d2230018
:10393c00614f78001e4090000004e0000b003a003c
:10394c001e04e00009003a00209922001040780083
:10395c008080fb0000be2300614078000004e00082
:10396c0002003a0010c0b3002047980020992200b2
:10397c00104078008080fb0040be2300614078003e
:10398c008080fb006020290061407800304798005f
:10399c0010992200104078008080fb00000f20005e
:1039ac008080600000042000808f500011003a00dd
:1039bc001e4090008081fb001e82fb001e40900088
:1039cc000080fb009e80fb004200dd008100400077
:1039dc0080152100e14078003e40900000c170004d
:1039ec004218dd00840040008015210082707800b0
:1039fc00130037001e4090008081fb001e82fb00ec
:103a0c001e4090000080fb009e80fb004200dd0009
:103a1c0081004000801521006140780080407800d2
:103a2c003e40900000c0ea0000c0600000417800f9
:103a3c004218dd008400400080152100827078005f
:103a4c00100020000080fa00000006000800fa00b8
:103a5c00404798005c0c0700f0982200104078005a
:103a6c008080fb00000f2000808060000009200097
:103a7c00808f50000b003a00009922001040780013
:103a8c000004e00007003a00109922001040780072
:103a9c000004e00003003a00209922001040780056
:103aac00a7070700f098220010407800e44f400070
:103abc0008003200f098220010407800e54f4000da
:103acc0004003200f098220010407800e64f4000cd
:103adc000a003a00f0982200104078006f5307005b
:103aec0020992200104078000081fb0031af2200a9
:103afc000040eb0000f17800760037009081200048
:103b0c00104078000080fb00610060000004e000c1
:103b1c00700032000099220010407800e74f5000ee
:103b2c001c003e0020992200104078008080fb0091
:103b3c0030af2200614078000004e00015003a002c
:103b4c0020992200104078000081fb0031af220048
:103b5c0010c0b30000f178002099220010407800ca
:103b6c000081fb00009922009040780000be2300e9
:103b7c000171780020992200104078000081fb0030
:103b8c00109922009040780040be2300017178000b
:103b9c005000370020992200104078008000eb0084
:103bac0031079800e14f500002003a00100020004d
:103bbc003007980030af2200be00900061407800c2
:103bcc000004e0004300320000992200104078000d
:103bdc00ff4f50003f0036000099220090407800c3
:103bec0070c2b30080cf50003a003e0020992200f2
:103bfc00104078000081fb0031af22000040eb0048
:103c0c0000f1780020992200104078008080fb00a1
:103c1c0000be230061407800e74f50002d003e00ad
:103c2c0020992200104078008080fb0000be230009
:103c3c00614078008080fb006020290061407800a2
:103c4c00004f780020992200104078008080fb0003
:103c5c0040be2300614078000080fb0010079800f4
:103c6c001e0090004700dd001007980010992200fc
:103c7c00104078008080fb001e0090000100700056
:103c8c00100798004e4090000081fb002099220004
:103c9c00104078008081fb002099220010407800b1
:103cac008080fb0000be2300614078008080fb0018
:103cbc004210dd00030040004300dd000100400025
:103ccc00800040000089200080804000000223001a
:103cdc0080087800100020000080fa000000060028
:103cec000800fa00b80b0700f0982200104078008a
:103cfc00e44f400008003200f09822001040780099
:103d0c00e54f400004003200f0982200104078008b
:103d1c00e64f400004003a00f09822001040780072
:103d2c00de52070024013700e09822001040780092
:103d3c008080fb00000f20008080600000042000c9
:103d4c00808f50001c013a00f0982200104078003f
:103d5c008080fb00000f200080806000000b2000a2
:103d6c00808f50000c003a0000992200904078009f
:103d7c0030c6b30080cf500007003a0010992200e3
:103d8c0090407800f0c7b30080cf500002003a009a
:103d9c001e3d07000801370090812000104078007c
:103dac000080fb00610060000004e00002013200b2
:103dbc00f09822009040780000cbb30080cf5000e8
:103dcc00fd003a0000992200104078000080fb00b2
:103ddc003007980060022000be009000808f5000d9
:103dec00be003200600220003e019000800f5100a6
:103dfc0004003c003e009000e60f50002d00320005
:103e0c00ed00370020062000be009000808f50008f
:103e1c0012003200300620003e019000800f51004d
:103e2c0001003200e40037001099220010407800a5
:103e3c00e54f500005003e0010992200904078009c
:103e4c0090c4230001487800db00370091c42300a4
:103e5c0000c0eb0080487800d700370090c42300e6
:103e6c0010407800e54f50000e003e0010992200e3
:103e7c0090407800f0c5b30080cf500005003e00a4
:103e8c001099220090407800b0c4230001487800bb
:103e9c00c900370091c4230000c0eb0080487800b3
:103eac00c500370091c4230000c0eb0080487800a7
:103ebc00c100370090c42300104078000080fb0044
:103ecc00200798002e009000e20f50006d00320089
:103edc00ae009000e28f500007003c002e019000d5
:103eec000200e0000b0032002e009000e10f5000a9
:103efc000e00320075003700ae009000e38f5000ca
:103f0c00640032002e019000e50f51006b0032006e
:103f1c006e00370010992200104078000080fb00e2
:103f2c004700dd00c0e78900a3003700b0c42300c0
:103f3c00104078000080fb004500de000081fb0093
:103f4c00b0c42300104078000080fb004300de006a
:103f5c000080fb00e30060004210dd0081004000a7
:103f6c00a0d323006141780022479800b0c42300fd
:103f7c00104078000080fb004500de000081fb0053
:103f8c00b0c42300104078000080fb004300de002a
:103f9c000080fb00e30060004210dd008100400067
:103fac00e0d223006141780012479800b0c423008e
:103fbc0010407800674f6000109922001040780084
:103fcc000004e000170032002e4090008081fb00be
:103fdc001e4090000082fb002e4090000081fb00f0
:103fec001e4090008080fb004210dd0081004000ec
:103ffc008015210061407800004178009e80fb0014
:10400c006020290061407800004071000041780078
:10401c004218dd0084004000801521008270780079
:10402c00650037002e4090008081fb001e40900000
:10403c000082fb002e4090000081fb001e4090008f
:10404c008080fb004210dd008100400080152100c3
:10405c0061407800004178009e80fb0060202900c0
:10406c006140780000c0ea00004061000041780027
:10407c004218dd0084004000801521008270780019
:10408c004d00370091c4230000c0eb00804878003d
:10409c0049003700109922009040780030c4b300da
:1040ac0080cf500001003a009853070091c42300c0
:1040bc0000c0eb00804878003f00370091c423001b
:1040cc0000c0eb00804878003b00370091c423000f
:1040dc0000c0eb00804878003700370010992200b0
:1040ec00104078008080fb00c0e7810000807000e9
:1040fc00c0e78900b0c42300104078000080fb00aa
:10410c004500de000081fb00b0c4230010407800a5
:10411c000080fb004300de000080fb00e300600039
:10412c004210dd0081004000a0d3230061417800e3
:10413c0022479800b0c42300104078000080fb0098
:10414c004500de000081fb00b0c423001040780065
:10415c000080fb004300de000080fb00e3006000f9
:10416c004210dd0081004000e0d223006141780064
:10417c0012479800b0c4230010407800674f6000cd
:10418c002e4090008080fb001e4090000081fb00c0
:10419c009e81fb00c4e781004208dd000200400064
:1041ac004300dd0003004000800040000089200037
:1041bc000080400004087800100020000080fa0005
:1041cc00000006001000fa007f0a0700f098220099
:1041dc0010407800e44f400008003200f0982200b4
:1041ec0010407800e54f400004003200f0982200a7
:1041fc0010407800e64f400004003a00f09822008e
:10420c0010407800a5510700ea033700e09822001f
:10421c00104078008080fb00000f20008080600040
:10422c0000042000808f5000e2033a00f098220036
:10423c009040780010cbb30080cf500011003a00b2
:10424c00009922009040780030c6b30080cf500017
:10425c000c003a001099220090407800b0c7b300cf
:10426c0080cf5000070036001099220010407800d3
:10427c008040780050c8b30000c040009d24070067
:10428c00cc033700f0982200104078000080fb002f
:10429c007007980080092000fe009000808f50006d
:1042ac00f1023200100b2000fe009000808f5000b5
:1042bc000500320080082000fe009000808f500026
:1042cc00f3023200b8033700009922001040780046
:1042dc000080fb006007980060022000ee00900058
:1042ec00808f50003102320060022000ee009000fe
:1042fc00808f500004003c006e009000e60f5000d0
:10430c0031003200ab03370020062000ee00900095
:10431c00808f50001300320030062000ee00900019
:10432c00808f500001003200a20337001099220048
:10433c0090407800f0c2b30080cf500005003e00e2
:10434c00109922009040780090c423000148780016
:10435c009803370091c4230000c0eb00804878001c
:10436c009403370090c42300104078000080fb00b9
:10437c007f005000e10f500005003e001099220014
:10438c0090407800b0c423000148780089033700be
:10439c001099220090407800f0c5b30080cf5000f7
:1043ac0005003e001099220090407800b0c4230014
:1043bc00014878007f03370091c4230000c0eb0054
:1043cc00804878007b03370090c4230010407800ad
:1043dc000080fb00500798005e009000f40f500026
:1043ec008d003200de009000f48f500011003c0074
:1043fc005e009000f10f500026003200de009000ad
:10440c00f18f500004003c005e009000f00f500053
:10441c001a003200e1013700de009000f28f5000ec
:10442c00690032005e009000f30f50006a00320009
:10443c00da013700de009000f88f5000be00320029
:10444c005e009000f80f500004003c00de0090006d
:10445c00f58f5000b4003200d00137005e009000a0
:10446c00ff0f5000c101320000022000de0090005e
:10447c00808f5000c3013200c80137001099220010
:10448c00104078000080fb004700dd00c0e7890089
:10449c004803370090812000104078000080fb001a
:1044ac00610060000004e00043003200b0c423004f
:1044bc00104078000080fb004500de00304798007b
:1044cc00b0c42300104078000080fb004300de00e5
:1044dc006340600020479800b0c42300104078006f
:1044ec006740600010479800109922001040780037
:1044fc000004e000180032003e4090008081fb0078
:10450c002e4090000082fb003e4090000081fb009a
:10451c002e4090008080fb004210dd0081004000a6
:10452c008015210061407800004178001e40900009
:10453c008080fb0060202900614078000040710001
:10454c00004178004218dd008400400080152100f5
:10455c0082707800180037003e4090008081fb008c
:10456c002e4090000082fb003e4090000081fb003a
:10457c002e4090008080fb004210dd008100400046
:10458c008015210061407800004178001e409000a9
:10459c008080fb00602029006140780000c0ea00a8
:1045ac0000406100004178004218dd0084004000aa
:1045bc00801521008270780091c4230000c0eb00ac
:1045cc0080487800fb02370091c4230000c0eb0048
:1045dc0080487800f7023700908120001040780066
:1045ec000080fb00610060000004e0000600320067
:1045fc00109922009040780030c4b30080cf500056
:10460c0001003a004152070091c4230000c0eb00a6
:10461c0080487800e7023700b0c4230010407800cf
:10462c000080fb004500de0030479800b0c423003a
:10463c00104078000080fb004300de006340600007
:10464c0020479800b0c423001040780067406000f9
:10465c001047980010992200104078000004e000e8
:10466c00180032003e4090008081fb002e409000ec
:10467c000082fb003e4090000081fb002e40900029
:10468c008080fb004210dd008100400000ac220065
:10469c0061407800004178001e4090008080fb0053
:1046ac0060202900614078000040710000417800d2
:1046bc004218dd008400400000ac220082707800bb
:1046cc00bc0237003e4090008081fb002e409000e1
:1046dc000082fb003e4090000081fb002e409000c9
:1046ec008080fb004210dd008100400000ac220005
:1046fc0061407800004178001e4090008080fb00f3
:10470c00602029006140780000c0ea000040610090
:10471c00004178004218dd008400400000ac22000b
:10472c0082707800a302370091c4230000c0eb0014
:10473c00804878009f023700b0c4230010407800f6
:10474c000080fb004500de0030479800b0c4230019
:10475c00104078000080fb004300de0063406000e6
:10476c0020479800b0c423001040780067406000d8
:10477c00104798000040eb00004f7800f400370021
:10478c0010992200104078000081fb009e80fb00f5
:10479c0060202900614078000000fb0000006100ef
:1047ac000000e000730032001e80fb004007980000
:1047bc00ce009000e18f5000260032004e00900099
:1047cc00e10f500004003c00ce0090000100e0001e
:1047dc0008003200dd0037004e009000e20f500060
:1047ec0034003200ce009000e38f500049003200bc
:1047fc00d60037003e4090008081fb002e40900098
:10480c000082fb003e4090000081fb002e40900097
:10481c008080fb004210dd00810040006010210010
:10482c0061407800004178001e4090008080fb00c1
:10483c006020290061407800004071000041780040
:10484c004218dd0084004000601021008270780066
:10485c00be0037003e4090008081fb002e4090004f
:10486c000082fb003e4090000081fb002e40900037
:10487c008080fb004210dd0081004000a00f210071
:10488c0061407800004178001e4090008080fb0061
:10489c0060202900614078000040710000417800e0
:1048ac004218dd0084004000a00f210082707800c7
:1048bc00a60037003e4090008081fb002e40900007
:1048cc000082fb003e4090000081fb002e409000d7
:1048dc008080fb004210dd0081004000e0112100cf
:1048ec0061407800004178001e4090008080fb0001
:1048fc006020290061407800004071000041780080
:10490c004218dd0084004000e01121008270780024
:10491c008e0037003e4090008081fb002e409000be
:10492c000082fb003e4090000081fb002e40900076
:10493c008080fb004210dd0081004000201121002e
:10494c0061407800004178001e4090008080fb00a0
:10495c00602029006140780000407100004178001f
:10496c004218dd0084004000201121008270780084
:10497c00760037001e80fb0030079800be009000c8
:10498c00e18f5000270032003e009000e10f5000f4
:10499c0004003c00be0090000100e0000800320062
:1049ac006a0037003e009000e20f500036003200e3
:1049bc00be009000e38f50004c00320063003700c3
:1049cc003e4090008081fb002e4090000082fb0056
:1049dc003e4090000081fb002e4090008080fb0048
:1049ec004210dd0081004000601021006140780021
:1049fc00004178001e4090008080fb006020290060
:104a0c006140780000c0ea0000406100004178007d
:104a1c004218dd0084004000601021008270780094
:104a2c004a0037003e4090008081fb002e409000f1
:104a3c000082fb003e4090000081fb002e40900065
:104a4c008080fb004210dd0081004000a00f21009f
:104a5c0061407800004178001e4090008080fb008f
:104a6c00602029006140780000c0ea00004061002d
:104a7c00004178004218dd0084004000a00f2100a6
:104a8c0082707800310037003e4090008081fb003e
:104a9c002e4090000082fb003e4090000081fb0005
:104aac002e4090008080fb004210dd008100400011
:104abc00e011210061407800004178001e40900018
:104acc008080fb00602029006140780000c0ea0073
:104adc0000406100004178004218dd008400400075
:104aec00e011210082707800180037003e409000e1
:104afc008081fb002e4090000082fb003e40900025
:104b0c000081fb002e4090008080fb004210dd00f5
:104b1c0081004000201121006140780000417800a4
:104b2c001e4090008080fb006020290061407800ce
:104b3c0000c0ea0000406100004178004218dd002e
:104b4c008400400020112100827078001e4fe80084
:104b5c0030c0b3009e4f100009ff3600b0c42300d4
:104b6c0010407800441b0700920137001099220076
:104b7c00104078000080fb0000004000c0e7890076
:104b8c008c01370010992200104078000080fb0047
:104b9c0000004000c0e789008601370091c4230063
:104bac0000c0eb00804878008201370090c42300dd
:104bbc00104078000080fb0020079800ae009000a9
:104bcc00ff8f50006f0032002e009000ff0f50003e
:104bdc0004003c00ae009000f08f50000a00320040
:104bec009d00370000022000ae009000808f500026
:104bfc008300320010022000ae009000808f500025
:104c0c008a0032009400370010992200104078007e
:104c1c008080fb00c0e7810000807000c0e7890045
:104c2c00b0c42300104078000080fb004500de007b
:104c3c0030479800b0c42300104078000080fb007f
:104c4c004300de006340600020479800b0c423009e
:104c5c00104078006740600010479800c0e7810062
:104c6c004a00de00610060000004e0001800320021
:104c7c003e4090008081fb002e4090000082fb00a3
:104c8c003e4090000081fb002e4090008080fb0095
:104c9c004210dd008100400090d623006140780076
:104cac00004178001e4090008080fb0060202900ad
:104cbc006140780000407100004178004218dd002e
:104ccc008400400090d623008270780018003700d2
:104cdc003e4090008081fb002e4090000082fb0043
:104cec003e4090000081fb002e4090008080fb0035
:104cfc004210dd008100400090d623006140780016
:104d0c00004178001e4090008080fb00602029004c
:104d1c006140780000c0ea0000406100004178006a
:104d2c004218dd008400400090d623008270780089
:104d3c003e4090000081fb002e4090008081fb00e3
:104d4c001e4090000082fb00c1e78100f03f200074
:104d5c00808260004210dd00030040004300dd0053
:104d6c0004004000800040000089200000804000ca
:104d7c000508780091c4230000c0eb00804878003f
:104d8c000c013700b0c42300104078000004e00090
:104d9c0017003200b0c4230090407800f0c3b30079
:104dac0080cf500012003e00b0c4230010407800a9
:104dbc000081fb001099220090407800c0e7810030
:104dcc0080c07000f080200001717800b0c4230016
:104ddc00104078008080fb00f0802000e1407800db
:104dec00b0c42300104078000041eb00fa600700cb
:104dfc0091c4230000c0eb0080487800ed00370020
:104e0c001099220090407800c0e7810080c07000ab
:104e1c00b0c42300104078001311070091c4230084
:104e2c0000c0eb0080487800e200370010992200a7
:104e3c0090407800c0e7810080c07000b0c42300af
:104e4c00104078001311070091c4230000c0eb0040
:104e5c0080487800d700370091c4230000c0eb00d5
:104e6c0080487800d30037000099220090407800e9
:104e7c00b0c423000148780010992200104078003b
:104e8c000080fb004700dd00c0e78900c900370047
:104e9c0010992200104078008080fb00c0e7810050
:104eac0000807000c0e78900b0c423001040780077
:104ebc000080fb004500de0030479800b0c42300a2
:104ecc00104078000080fb004300de00634060006f
:104edc0020479800b0c42300104078006740600061
:104eec0010479800c0e781004c00de0061006000b4
:104efc000004e000180032003e4090008081fb006e
:104f0c002e4090000082fb003e4090000081fb0090
:104f1c002e4090008080fb004210dd00810040009c
:104f2c0090d6230061407800004178001e4090002c
:104f3c008080fb00602029006140780000407100f7
:104f4c00004178004218dd008400400090d6230018
:104f5c0082707800180037003e4090008081fb0082
:104f6c002e4090000082fb003e4090000081fb0030
:104f7c002e4090008080fb004210dd00810040003c
:104f8c0090d6230061407800004178001e409000cc
:104f9c008080fb00602029006140780000c0ea009e
:104fac0000406100004178004218dd0084004000a0
:104fbc0090d6230082707800c0e781004d00de009f
:104fcc00610060000004e000180032003e409000d8
:104fdc008081fb002e4090000082fb003e40900040
:104fec000081fb002e4090008080fb004210dd0011
:104ffc008100400000ac2200614078000041780044
:10500c001e4090008080fb006020290061407800e9
:10501c0000407100004178004218dd00840040001f
:10502c0000ac220082707800180037003e409000df
:10503c008081fb002e4090000082fb003e409000df
:10504c000081fb002e4090008080fb004210dd00b0
:10505c008100400000ac22006140780000417800e3
:10506c001e4090008080fb00602029006140780089
:10507c0000c0ea0000406100004178004218dd00e9
:10508c008400400000ac220082707800c0e78100f0
:10509c004a00de00610060000004e00018003200ed
:1050ac003e4090008081fb002e4090000082fb006f
:1050bc003e4090000081fb002e4090008080fb0061
:1050cc004210dd0081004000801521006140780015
:1050dc00004178001e4090008080fb006020290079
:1050ec006140780000407100004178004218dd00fa
:1050fc008400400080152100827078001800370071
:10510c003e4090008081fb002e4090000082fb000e
:10511c003e4090000081fb002e4090008080fb0000
:10512c004210dd00810040008015210061407800b4
:10513c00004178001e4090008080fb006020290018
:10514c006140780000c0ea00004061000041780036
:10515c004218dd0084004000801521008270780028
:10516c003e4090000081fb002e4090008081fb00af
:10517c001e4090000082fb00c1e78100f03f200040
:10518c00808260004210dd00030040004300dd001f
:10519c000400400080004000008920000080400096
:1051ac00050878000300370091c4230000c0eb0011
:1051bc0080487800100020000080fa0000000600f3
:1051cc000200fa00004f78009e40780040c0b30007
:1051dc00400607006000b800b0eb8800c1eb880007
:1051ec00a0992200104078006f406000b1eb800065
:1051fc000080fb006f0060004401dd00f0f02f0028
:10520c008080600082807000b1eb88006099220081
:10521c0010407800ef406000b0eb80008180fb0014
:10522c006f81600001ff2f00010060000200700020
:10523c00b0eb8800709922009040780070d7210064
:10524c0001487800809922009040780080d7210096
:10525c0001487800909922009040780090d7210066
:10526c0001487800100020000080fa0000000600c1
:10527c000800fa00004f7800114798002247980068
:10528c003347980044479800554798006647980064
:10529c0077479800d0c42300104078000004e00049
:1052ac00020132001e04e00025003a006199220040
:1052bc00b0c0b300804878007199220000cbb300d5
:1052cc008048780080992200ce40900001487800f8
:1052dc0090992200de40900001487800a0992200ad
:1052ec00ae40900001487800ae40900040c0b30042
:1052fc00af05070061992200b0c0b3008048780068
:10530c007199220000cbb30080487800809922006c
:10531c00ee4090000148780090992200fe409000e9
:10532c0001487800a0992200ae4090000148780016
:10533c00ae40900040c0b3009d050700db00370075
:10534c0010c0b3009e4f10008e003a001e4090001b
:10535c000004e00016003a006199220090c0b300ee
:10536c0080487800be40900000c9b30000c04000e7
:10537c0080407800709922000148780080992200c2
:10538c00ce4090000148780090992200de409000b9
:10539c0001487800a0992200ae40900001487800a6
:1053ac00ae40900040c0b30081050700bf0037003d
:1053bc001e409000e14f500016003a006199220007
:1053cc0080c0b30080487800be40900000c8b30095
:1053dc0000c040008040780070992200014878009d
:1053ec0080992200ce4090000148780090992200cc
:1053fc00de40900001487800a0992200ae40900059
:10540c0001487800ae40900040c0b300680507002a
:10541c00a60037001e409000e24f500016003a00e4
:10542c0061992200e0c0b30080487800be40900033
:10543c0000ceb30000c0400080407800709922007c
:10544c000148780080992200ce40900001487800f5
:10545c0090992200de40900001487800a09922002b
:10546c00ae40900001487800ae40900040c0b300c0
:10547c004f0507008d0037001e409000e34f500091
:10548c008a003a006199220090c0b30080487800ed
:10549c00be40900000c9b30000c0400080407800be
:1054ac00709922000148780080992200ce4090002b
:1054bc000148780090992200de4090000148780065
:1054cc00a0992200ae40900001487800ae409000b8
:1054dc0040c0b300360507006199220090c0b300ac
:1054ec0080487800be40900000c9b30000c0400066
:1054fc008040780070992200014878008099220041
:10550c00ee4090000148780090992200fe409000f7
:10551c0001487800a0992200ae4090000148780024
:10552c00ae40900040c0b3002105070061992200f5
:10553c0090c0b30080487800be40900000c9b30012
:10554c0000c040008040780070992200014878002b
:10555c0080992200ce40900001487800909922005a
:10556c00fe40900001487800a0992200ae409000c7
:10557c0001487800ae40900040c0b3000c05070015
:10558c004a00370020c0b3009e4f100013003a00b1
:10559c0061992200f0c0b300804878007099220015
:1055ac00ce40900001487800819922000040eb0029
:1055bc0080487800919922000040eb0080487800e8
:1055cc00a0992200ae40900001487800ae409000b7
:1055dc0040c0b300f60407003400370030c0b300fd
:1055ec009e4f100031003a001e4090000004e00075
:1055fc0016003a0061992200b0c0b30080487800d0
:10560c00be40900000cbb30000c04000804078004a
:10561c00709922000148780080992200ce409000b9
:10562c000148780090992200de40900001487800f3
:10563c00a0992200ae40900001487800ae40900046
:10564c0040c0b300da040700180037001e40900079
:10565c00e14f500015003a006199220020c0b300c0
:10566c0080487800be40900000cbb30000c04000e2
:10567c0080407800709922000148780080992200bf
:10568c00ce4090000148780090992200de409000b6
:10569c0001487800a0992200ae40900001487800a3
:1056ac00ae40900040c0b300c10407000080fa0077
:1056bc00000006000400fa009700370060ce2300bb
:1056cc00104178008280fb0050cc2300e14178002f
:1056dc00134798008240e80060ce23000148780010
:1056ec0060ce23009040780040cc2300104078001e
:1056fc0080cf50000300390061ce23000040eb0046
:10570c008048780030cc2300104078008040e900bd
:10571c0030cc23000148780070ce23001040780074
:10572c008040e90070ce2300014878001e409000b4
:10573c000080fb004400de00004f78001e80fb0060
:10574c00100798001e019000e30f51003b0032003f
:10575c009e019000e38f51000a003c001e00900057
:10576c00e10f50001f0032001e019000e10f5100ac
:10577c0027003c009e0190000300e0000e00320068
:10578c00650037001e009000e50f5000410032000c
:10579c001e019000e50f5100330035009e01900072
:1057ac00e68f5100460032001e009000e70f5000bb
:1057bc004e00320058003700f0b022001040780044
:1057cc0002c7b300824060001e4090006f40600032
:1057dc0000c0700080407800f0b0220001487800d2
:1057ec004d003700f0b0220010407800ef40600010
:1057fc001e4090000080fb004400dd0000c07000e3
:10580c0080407800f0b02200014878004200370058
:10581c0000b122001040780003c7b3008340600041
:10582c001e4090006f40600000c070008040780007
:10583c0000b12200014878003700370000b1220087
:10584c0010407800ef4060001e4090000080fb008c
:10585c004400dd0000c070008040780000b12200e0
:10586c00014878002c00370010b12200104078005d
:10587c0002c7b300824060001e4090006f40600081
:10588c0000c070008040780010b122000148780000
:10589c002100370010b1220010407800ef4060006a
:1058ac001e4090000080fb004400dd0000c0700032
:1058bc008040780010b122000148780016003700b3
:1058cc0020b122001040780003c7b3008340600071
:1058dc001e4090006f40600000c070008040780057
:1058ec0020b12200014878000b00370020b12200c3
:1058fc0010407800ef4060001e4090000080fb00dc
:10590c00610060004400dd0000c070008040780041
:10591c0020b122000148780070ce2300104078009e
:10592c000004e0000400320030cc2300104078006a
:10593c000004e00061ff3a000080fa00000006005d
:10594c000200fa00004f78006199220090c0b30069
:10595c00804878007199220000c9b3008048780013
:10596c00819922000040eb00804878009199220038
:10597c00f0c7b30080487800a09922001e48780038
:10598c009e40780040c0b300090407001e81fb0054
:10599c00b1af220040c0b30000f178001e81fb00c3
:1059ac00719e220010c0b30000f178000080fa0054
:1059bc00000006000200fa00004f7800e198220077
:1059cc000040eb0080487800f19822000040eb008a
:1059dc0080487800019922000040eb008048780054
:1059ec00119922000040eb00804878002199220098
:1059fc000040eb0080487800319922000040eb0019
:105a0c0080487800419922000040eb0080487800e3
:105a1c00619922000040eb008048780071992200c7
:105a2c000040eb0080487800819922000040eb0098
:105a3c0080487800919922000040eb008048780063
:105a4c00a19922000040eb0080487800b199220017
:105a5c000040eb0080487800c19922000040eb0028
:105a6c00804878000080fa00000006000a00fa0066
:105a7c000000eb00400798000b0037004e0190002f
:105a8c0001dd20000040eb0000f178004e01900099
:105a9c0001e320000040eb0000f178004e00900084
:105aac000000e800400798004e009000eb0f5000fb
:105abc00f2ff36000000eb0040079800970037001b
:105acc000000eb00200798008e0037004e0090007d
:105adc00ae0090004200dd0001014000e10b21000e
:105aec000040eb0000f178004e009000ae009000fa
:105afc004200dd0001014000f19c22000040eb005f
:105b0c0000f178004e009000ae0090004200dd00e5
:105b1c0001014000b19d22000040eb0000f1780033
:105b2c004e009000ae0090004200dd0001014000ec
:105b3c00e1ac22000040eb0000f17800ce009000b8
:105b4c002e0190002e009000804178004208dd006c
:105b5c008200400060d1230083707800ce0090005a
:105b6c002e0190002e009000804178004208dd004c
:105b7c008200400020d22300837078004e009000f9
:105b8c00ae0090004200dd0001014000c1d52300b1
:105b9c000040eb0000f178004e009000ae00900049
:105bac004200dd0001014000a10f210000c0eb000c
:105bbc0000f178004e009000ae0090004200dd0035
:105bcc00010140006110210000c0eb0000f17800e1
:105bdc004e009000ae0090004200dd00010140003c
:105bec00e111210000c0eb0000f178004e009000a4
:105bfc00ae0090004200dd000101400021112100a7
:105c0c0000c0eb0000f178004e009000ae00900058
:105c1c004200dd000101400001ac220000c0eb009d
:105c2c0000f178004e009000ae0090004200dd00c4
:105c3c0001014000411321000040eb0000f178000d
:105c4c004e009000ae0090004200dd0001014000cb
:105c5c0091d623000040eb0000f178000000eb002f
:105c6c00100798000e003700ce0190002e00900017
:105c7c001e0290006300b900000178006c18b90096
:105c8c000000410004014000610d21000040eb00c8
:105c9c0000f178001e0090000000e800100798004a
:105cac001e009000e20f5000efff36000000eb00ea
:105cbc00300798000d0037004e009000ae009000a9
:105ccc003e0190004200dd00010040004300dd0079
:105cdc000201400001a322000040eb0000f178001b
:105cec003e0090000000e800300798003e00900055
:105cfc00e70f5000f0ff36002e0090000000e80087
:105d0c00200798002e009000e30f50006fff360024
:105d1c004e0090000000e800400798004e009000f4
:105d2c00e20f500066ff36000000eb0010079800f1
:105d3c00330037001e019000f11a21000040eb00e7
:105d4c0000f178001e019000f14121000040eb00b1
:105d5c0000f178001e019000f12621000040eb00bc
:105d6c0000f178001e0090008000400000ad200083
:105d7c00808040000000eb00800878001e0190003d
:105d8c0001a120000040eb0000f178001e00900003
:105d9c008000400000b92000808040000000eb0033
:105dac00800878001e01900001a720000040eb0045
:105dbc0000f178001e01900001f520000040eb007e
:105dcc0000f178001e01900001ef20000040eb0074
:105ddc0000f178001e01900001fc20000040eb0057
:105dec0000f178001e01900001e920000040eb005a
:105dfc0000f178001e0090000000e80010079800e9
:105e0c009e009000f0052000808f5000c9ff3600e6
:105e1c0001fb20000040eb008048780011fb2000c3
:105e2c000040eb008048780021fb20000040eb0094
:105e3c008048780031fb20000040eb00804878005f
:105e4c002003200060898800e11721000040eb004e
:105e5c0080487800c117210070c0b30080487800da
:105e6c00d117210060c0b3008048780001a2220045
:105e7c000040eb0080487800f1a122000040eb00cc
:105e8c0080487800219c22000040eb00804878007c
:105e9c00119c220010c0b30080487800619b220046
:105eac000040eb0080487800e1c423000040eb0088
:105ebc0080487800d1c423000040eb008048780073
:105ecc00c19a22000040eb0080487800419a2200e1
:105edc000040eb008048780021a0220010c0b300e5
:105eec0080487800b19c22000040eb00804878008c
:105efc00719b22000040eb0080487800319c22000e
:105f0c000040eb00804878000000eb00804d8900d9
:105f1c00e1a122000040eb0080487800e1812000e4
:105f2c00c0c0b30080487800419b22000040eb00c9
:105f3c00804878000040eb00700307000040eb0045
:105f4c009b0307000040eb009afe070010c0b30053
:105f5c0098fe070020c0b30096fe070030c0b300c7
:105f6c0094fe070040c0b30092fe070091c32300cb
:105f7c0050c0b3008048780021c523000040eb00de
:105f8c008048780051a022000040eb008048780047
:105f9c00f19f22000040eb008048780011a0220005
:105fac000040eb00804878000000eb00304d890089
:105fbc0041a022000040eb008048780031a0220074
:105fcc000040eb008048780021c3230030c0b300b0
:105fdc008048780031c323000040eb0080487800f3
:105fec0031c423000040eb008048780051bf2300ef
:105ffc0070c7b3008048780031c523000040eb0027
:10600c0080487800f1c723000040eb0080487800fe
:10601c000000eb0030e8890061c723000040eb0072
:10602c0080487800219b220010c0b3008048780083
:10603c000000eb0040e8890051cf230010c0b300f2
:10604c0080487800019a220000c4b3008048780090
:10605c00e19922000040eb0080487800f199220081
:10606c000040eb0080487800119a22000040eb00c1
:10607c0080487800219a22000040eb00804878008c
:10608c00b19f22000040eb008048780000c4b300b0
:10609c00004f7800e1d023000040eb0080487800ee
:1060ac00e19e22000040eb0080487800f1bf230005
:1060bc000040eb008048780001c023000040eb005a
:1060cc008048780011c023000040eb008048780025
:1060dc0021c023000040eb008048780041cc230015
:1060ec0000c2b3008048780001c8230000c4b3008c
:1060fc008048780041bf230010c0b300804878006e
:10610c0091c723000040eb008048780094e0a90080
:10611c0081c323000040eb0080487800519c220092
:10612c000040eb0080487800018220000040eb002a
:10613c008048780071c5230010c0b30080487800f7
:10614c00c1cf230010c0b30080487800100020009d
:10615c000080fa00000006000200fa00e44c070080
:10616c00004f780030cab3009e4f10003e00320042
:10617c0032cab3006000b800eb4c0700318120003c
:10618c000040eb00804878004181200010c0b30033
:10619c00804878005181200080c0b300804878008e
:1061ac006181200030c0b3008048780071812000ec
:1061bc000040eb0080487800818120000040eb001b
:1061cc0080487800a181200030c0b300804878005e
:1061dc00b18120000040eb0080487800d181200084
:1061ec0020c2b30080487800e1812000c0c0b30019
:1061fc0080487800f18120000040eb008048780056
:10620c0011822000f0c5b300804878002182200064
:10621c00e0c5b30080487800318220000040eb00dc
:10622c0080487800418220000040eb0080487800d4
:10623c00618220000040eb008048780071822000d1
:10624c000040eb0080487800f182200080c0b30051
:10625c0080487800018320000040eb0080487800e3
:10626c006a4c07005e003700018120000040eb0003
:10627c0080487800218120000040eb0080487800a5
:10628c00318120000040eb008048780041812000e3
:10629c0010c0b300804878005181200080c0b3004a
:1062ac00804878007000200001002000ac4c0700f2
:1062bc008040780060812000014878008000200038
:1062cc0001002000a64c070080407800708120005f
:1062dc00014878009000200001002000a04c07002d
:1062ec00804078008081200001487800b0002000b8
:1062fc00010020009a4c070080407800a08120000b
:10630c0001487800b18120000040eb008048780003
:10631c00e000200001002000914c07008040780034
:10632c0000cfb30000c060000014a00080407800d3
:10633c00d0812000014878000001200001002000dd
:10634c00874c070080407800f081200001487800dd
:10635c002001200001002000814c070080407800c3
:10636c00108220000148780030012000010020003c
:10637c007b4c070080407800208220000148780088
:10638c005001200001002000754c0700804078006f
:10639c00408220000148780070012000010020009c
:1063ac006f4c070080407800608220000148780024
:1063bc000002200001002000694c0700804078009a
:1063cc00f08220000148780000022000010020002b
:1063dc00634c07008040780000832000014878005f
:1063ec009181200000ccb30080487800f18220001d
:1063fc00a0c0b30080487800018320000040eb006f
:10640c00804878006182200020c0b300804878006a
:10641c00818220000040eb0080487800d181200070
:10642c0020c2b300804878000041eb008040eb00b4
:10643c0020c0b300685b07000041eb008040eb001c
:10644c0030c0b300645b07003081200090407800be
:10645c000041eb0040c0b3005f5b0700608120008f
:10646c00904078000041eb0070c0b3005a5b07000d
:10647c0070812000904078000041eb0080c0b30098
:10648c00555b070080812000904078000041eb00b4
:10649c0090c0b300505b0700a081200090407800b2
:1064ac000041eb00b0c0b3004b5b0700b081200093
:1064bc00904078000041eb00c0c0b300465b070081
:1064cc00d0812000904078000041eb00e0c0b30088
:1064dc00415b070060822000904078000041eb0097
:1064ec0070c1b3003c5b07007082200090407800c4
:1064fc000041eb0080c1b300375b070080822000b5
:10650c00904078000041eb0090c1b300325b070073
:10651c000041eb0011c0b300c0c1b3002e5b0700fb
:10652c000041eb0021c0b300c0c1b3002a5b0700df
:10653c00f0822000904078000041eb0000c2b300d4
:10654c00255b070000832000904078000041eb00a1
:10655c0010c2b300205b07002090840080407800bc
:10656c00d082200001487800908120009040780073
:10657c000041eb00a0c0b300175b07000080fa00dd
:10658c00000006000000fa000080eb006019880093
:10659c00d962a900d862a900d942a900d842a900a1
:1065ac000000eb000080fa00000006000000fa007a
:1065bc000000eb0000088800a00f200010088800e5
:1065cc008460a9009460a800510a200091407800d2
:1065dc00f0c8b30000c0600001c4b30001407000fb
:1065ec00a5e0b700810a20009140780080cfb3006d
:1065fc0000c060000024a000a8e0b7000000eb0081
:10660c005008880000202000700888000001280035
:10661c00900888008500a9009500a8000000eb00f8
:10662c00a008880000022000d00888008760a9001c
:10663c009760a90000032800f008880000fa2000e9
:10664c0050e189000001280020088800100020007b
:10665c000080fa00000006000000fa000000eb00c9
:10666c003008880000002100600888000001280024
:10667c008008880084e0a90094e0a800710a20003a
:10668c0091407800f0c8b30000c0600001c4b300b2
:10669c0001407000a7e0b7000080fa00000006007f
:1066ac000000fa000080eb0060198800030007006e
:1066bc00cb2307000080fa00000006000000fa005f
:1066cc00218020000040eb008048780031802000c1
:1066dc000040eb00804878000000eb00b02c8a00f2
:1066ec000000eb00c02c8a000080fa0000000600bd
:1066fc000000fa000080fa00000006000000fa001a
:10670c000080fa00000006000000fa00809a2200c7
:10671c00104078000004e00005003200809a22004e
:10672c00104078008040e900809a220001487800ef
:10673c000080fa00000006000000fa000080fa0059
:10674c00000006000000fa000080fa0000000600bd
:10675c000000fa000080fa00000006000000fa00b9
:10676c00d1c1b30010c0b300d724070003c4b300d9
:10677c00b2b522008040eb0010c0b300f324070038
:10678c00c02c8a000080fa00000006000000fa000d
:10679c00e0328200e10f50001b003a00f032820020
:1067ac00e10f500018003a009ec0a900d3ff07006b
:1067bc008824a9000000eb00f0328a0000e12000e0
:1067cc0000408800004080000000e9000040880084
:1067dc00004080000000e000faff3a009444a8005a
:1067ec008070200000408800004080000000e9001c
:1067fc0000408800004080000000e000faff3a00f2
:10680c009444a9009ec0a8000080fa000000060075
:10681c000a00fa0010079800210798003207980028
:10682c001e0090004007980020072000ce0090002a
:10683c00808f50003600320020072000ce009000e0
:10684c00808f500011003c004e009000e20f500071
:10685c0027003200ce009000e28f500004003c0074
:10686c004e009000e10f50001f003200280037004e
:10687c00ce009000e38f50001f0032004e009000bd
:10688c00e50f5000200032002100370040072000a7
:10689c00ce009000808f5000110032004007200085
:1068ac00ce009000808f500009003500500720006a
:1068bc00ce009000808f500007003200f0ff2700c0
:1068cc00ce009000808f50000d0032001000370079
:1068dc008dff07000e00370085ff07000c00370006
:1068ec0086ff07000a0037009cff070008003700ee
:1068fc0097ff07000600370092ff070004003700df
:10690c008dff0700020037000040eb00004f7800bd
:10691c00100020000080fa00000006000000fa00c1
:10692c00e1c423000040eb0080487800d1c4230070
:10693c000040eb0080487800792507000080fa00c1
:10694c00000006000200fa00000f78001e00e000b4
:10695c00050032001e00780050e3890050e38100ee
:10696c000000e000fdff3a000080fa000000060085
:10697c000200fa00000f78001e00e0000200320056
:10698c001e00780020e189000080fa00000006005b
:10699c000200fa00000f78001e00e0000200320036
:1069ac001e00780030e189000080fa00000006002b
:1069bc000400fa00004f780011479800514c8100f8
:1069cc00204c8100808f5000030039000000eb0048
:1069dc00100798003c003700324c8100609922006f
:1069ec0010407800ef406000a09922001040780021
:1069fc000080fb004400dd0000c070008040780087
:106a0c00405822000000410001487800314c8100c0
:106a1c0070992200104178000110b00040582200fb
:106a2c000080400002487800314c8100809922009f
:106a3c00104178000120b000405822000080400036
:106a4c0002487800314c8100909922001041780066
:106a5c000130b0004058220000804000024878000d
:106a6c00304c81000000e800304c8900314c810032
:106a7c00204c8100808f5000020039000000eb0098
:106a8c00304c8900504c81000000e800504c8900cb
:106a9c00514c8100604c8100808f50000200390005
:106aac00504c8100604c8900514c8100204c81007d
:106abc00808f50000200390000082000ba5a0700ed
:106acc0010002000100798001e0090000080fa00b3
:106adc00000006000200fa00004f780011479800f1
:106aec00504c81000000e00034003200414c810029
:106afc00405822000080400010407800ef406000b9
:106b0c006099220001487800404c8100011020005f
:106b1c008080400040582200008040009040780067
:106b2c007099220001487800404c8100012020001f
:106b3c008080400040582200008040009040780047
:106b4c008099220001487800404c810001302000df
:106b5c008080400040582200008040009040780027
:106b6c009099220001487800414c81004058220045
:106b7c0000804000104078000080fb004400de00e4
:106b8c0080407800a099220001487800404c810098
:106b9c000000e800404c8900504c81000000e900e6
:106bac00504c8900414c8100204c8100808f50005a
:106bbc00020039000000eb00404c8900100020005e
:106bcc000080fa00000006000000fa00002c810092
:106bdc000000e00033003200f12b8100a0d721002f
:106bec000080400090407800e09822000148780036
:106bfc00f02b81000120200080804000a0d72100d4
:106c0c000080400090407800f09822000148780005
:106c1c00f12b81000040200080804000a0d7210093
:106c2c0000804000904078000099220001487800d4
:106c3c00f12b81000060200080804000a0d7210053
:106c4c0000804000904078001099220001487800a4
:106c5c00f12b8100a0d7210000804000104078006b
:106c6c000080fb004400de00804078002099220068
:106c7c0001487800f02b81000000e800f02b89001f
:106c8c00002c81000000e900002c8900f12b810010
:106c9c00d02b8100808f5000020039000000eb00e7
:106cac00f02b89000000eb000080fa0000000600c9
:106cbc000200fa00004f7800504c81000080fa006e
:106ccc00000006000000fa000000eb00404c8900b8
:106cdc000000eb00304c89000000eb00504c8900a8
:106cec000080fa00000006000200fa00004f780055
:106cfc00002c81000080fa00000006000400fa005d
:106d0c00204798000000eb00000f78001b003700b4
:106d1c009e007800a0d72100808040000040eb004e
:106d2c00804878001e007800012020008080400000
:106d3c00a0d72100808040000040eb008048780004
:106d4c009e0078000040200080804000a0d72100e9
:106d5c00808040000040eb00804878009e00780066
:106d6c000060200080804000a0d72100808040007f
:106d7c000040eb00804878001e0fe800f01f200058
:106d8c009e0f1000e2ff360000202000d02b89005f
:106d9c000000eb00e02b89000000eb00f02b8900d9
:106dac000000eb00002c89000080fa0000000600b7
:106dbc000400fa00204798000000eb00000f780058
:106dcc001b0037009e007800405822008080400055
:106ddc000040eb00804878001e0078000110200075
:106dec008080400040582200808040000040eb0032
:106dfc00804878001e007800012020008080400030
:106e0c0040582200808040000040eb008048780011
:106e1c001e00780001302000808040004058220085
:106e2c00808040000040eb00804878001e0fe80096
:106e3c00f00f20009e0f1000e2ff36000010200023
:106e4c00204c89000000eb00304c89000000eb0066
:106e5c00404c89000000eb00504c89000080fa0087
:106e6c00000006000000fa0000d12300104078005a
:106e7c008040e80000d123000148780000d12300b5
:106e8c0010407800e34f50000800360010d123006a
:106e9c00104078008040e80010d1230001487800b1
:106eac0001d123000040eb008048780010d1230072
:106ebc00104078000080fb00c200dd0000d12300f0
:106ecc00104078000080fb0080804000e0812000b2
:106edc00104078000080fb000000e900808f50001b
:106eec001900340001d123000040eb0080487800e9
:106efc0011d123000040eb00804878007082200004
:106f0c00104078000004e0000c00320050d5230043
:106f1c00104078000004e00004003a0051d5230032
:106f2c0010c0b300804878000700370051d523000b
:106f3c000040eb00804878000300370051d5230057
:106f4c0010c0b3008048780010d1230010407800a6
:106f5c000080fb00c200dd0000d12300104078004f
:106f6c000080fb00008040004300dd000080fb003f
:106f7c000080fa00000006000000fa0041662100c3
:106f8c000040eb008048780001d123000040eb006a
:106f9c008048780011d123000040eb008048780035
:106fac000080fa00000006000000fa004166210093
:106fbc0010c0b300804878000080fa000000060082
:106fcc000600fa00000f78001107980022079800bd
:106fdc001e009000104078000300070010002000f5
:106fec000080fa00000006000400fa002047980018
:106ffc002e4090000080fb004300de00610060002a
:10700c000000e0005b003a00c02c82000000e000b1
:10701c0006003200c02c82009040900000c8b300e3
:10702c0000c060000004e00052003a00109a2200f8
:10703c0090407800009a22001040780080cf5000d9
:10704c0009003600100020005759070003c4b30094
:10705c00b2b122008040eb0010c0b300bb2207008d
:10706c00c02c8a004300370003c4b300b2b5220021
:10707c008040eb0010c0b300b4220700c02c8a0083
:10708c000040eb00004f780010003700e099220020
:10709c00104078000081fb009e81fb009e80fb006d
:1070ac00b0b52200614278004610dd00830040003c
:1070bc00b0b92200847078001e81fb00b1b52200ab
:1070cc000040eb0000f178001e4fe800009a22000f
:1070dc00104078009e4f5000ecff3e00e0992200db
:1070ec00104078008080fb00b0b923001e4178006e
:1070fc0082707800e0992200104078008040e8000f
:10710c00e099220001487800e09922009040780034
:10711c00009a22001040780080cf50000300390004
:10712c00e19922000040eb0080487800109a220080
:10713c0090407800009a22001040780080cf5000d8
:10714c00020039001000200017590700209a220075
:10715c0090407800109a22001040780080cf5000a8
:10716c0004003900109a220090407800209a2200e6
:10717c00014878000080fa00000006000200fa00c6
:10718c00809b220010407800e54f50001b00360019
:10719c00604e81000000e00013003a0040662100c0
:1071ac00104078000080fb00000f78001e00780073
:1071bc000000e000040032001e007800e10f5000d7
:1071cc00050032000b0037002a00070010002000d9
:1071dc00604e890007003700fc02070010002000f9
:1071ec00604e890003003700604e81000000e9000a
:1071fc00604e8900514d070010003700809b220023
:10720c00104078000004e0000c003200909b22003b
:10721c0090407800809b22001040780080cf500076
:10722c0005003200809b220090407800909b220049
:10723c000148780003000700404d07000080fa0069
:10724c00000006000000fa0000c0eb00f94d07003a
:10725c0000ceb300f74d0700809b22001040780051
:10726c00f44d0700e0cfb300f24d07000080fa00a8
:10727c00000006000c00fa0000c0eb00ed4d07000a
:10728c0000c9b300eb4d070050d523001040780027
:10729c000004e00095013200b09a22001040780002
:1072ac00e44d070010d12300104078000080fb0053
:1072bc004200dd008040780000d1230010407800af
:1072cc0000c04000db4d07000040eb003047980049
:1072dc008200370010d12300104078000080fb00a2
:1072ec00c200dd0000d12300104078000080fb00bc
:1072fc0000804000c300dd003e4090000080fb0099
:10730c00008f400010d12300104078008081fb00da
:10731c0000d12300104078008080fb003e4090009c
:10732c000081fb004218dd00010040004300dd003d
:10733c008200400000a3220061417800224798009f
:10734c0070822000104078000004e000120032002f
:10735c001e0078008000400000ad2000008040003e
:10736c0090007800f0ff2300008060004700de00f2
:10737c000074a100af4d07001e0078008000400093
:10738c0000ad200000804000100078000074a100c7
:10739c00a84d07004e0037002e4090000080fb00e7
:1073ac00400798004e009000e70f500048003e0048
:1073bc0010002000ce0090000100dd005007980066
:1073cc00200220005e019000000061000000e0003f
:1073dc001c003a00c00c2000de0090000080600011
:1073ec000000e00029003a005e019000610061009d
:1073fc000000e00001003a00350037001e00780064
:10740c008000400000ad200000804000900078001b
:10741c00f0ff2300008060004700de000074a10034
:10742c00844d07001e0078008000400000ad200055
:10743c0000804000100078000074a1007d4d070012
:10744c00230037001e0078008000400000ad2000b3
:10745c000080400090007800f0ff23000080600066
:10746c004700de000074a100724d07001e0078007a
:10747c008000400000ad200000804000100078002b
:10748c000074a1006b4d0700110037001e0078003e
:10749c008000400000ad200000804000900078008b
:1074ac00f0ff2300008060004700de000074a100a4
:1074bc00604d07001e0078008000400000ad2000e9
:1074cc0000804000100078000074a100594d0700a6
:1074dc003e4090000040e800304798003e4090004d
:1074ec00e74f50007bff360010d12300104078008e
:1074fc000081fb0000d12300104078008080fb004d
:10750c004210dd0081004000c01421006140780071
:10751c000074a100474d070010d1230010407800e3
:10752c008081fb0000d12300104078000080fb001c
:10753c006300b900000178006c18b90080004100ac
:10754c00600d2100614078000074a100394d0700e6
:10755c0010d12300104078008081fb0000d1230063
:10756c00104078000080fb006300b9000001780037
:10757c006c18b900000041008000e800600d21008b
:10758c00614078000074a1002a4d070010d123003f
:10759c00104078008081fb0000d12300104078005f
:1075ac000080fb006300b900000178006c18b90082
:1075bc00000041008080e800600d210061407800ef
:1075cc000074a1001b4d070010d12300104078005f
:1075dc000081fb0000d12300104078008080fb006c
:1075ec004210dd008100400040a222006140780082
:1075fc000074a1000f4d070010d12300104078003b
:10760c000081fb0000d12300104078008080fb003b
:10761c004210dd0081004000c01421006140780060
:10762c008080fb0000082000008060000080d100fa
:10763c000042780010d12300104078008081fb00bc
:10764c0000d12300104078000080fb006300b900db
:10765c00000178006c18b90080004100600d210019
:10766c00614078008080fb000008200000806000f2
